:020000040800F2
:10000000500400209D01000839180008311800082C
:1000100035180008F9090008AD19000800000000B3
:100020000000000000000000000000007718000839
:10003000C90A0008000000007518000879180008B7
:10004000B7010008B7010008B7010008B7010008B0
:10005000B7010008B7010008B7010008B7010008A0
:10006000B7010008B7010008B7010008B701000890
:10007000B7010008B7010008B7010008B701000880
:10008000B7010008B7010008B7010008B701000870
:10009000B7010008B7010008B7010008B701000860
:1000A000B7010008B7010008B7010008B701000850
:1000B000B7010008B7010008B7010008B701000840
:1000C000B7010008B7010008B7010008B701000830
:1000D000B7010008B7010008B7010008B701000820
:1000E000B7010008B7010008B7010008B701000810
:1000F000B7010008B7010008B7010008B701000800
:10010000B7010008B7010008B7010008B7010008EF
:10011000B7010008B7010008B7010008B7010008DF
:10012000B7010008B7010008B7010008B7010008CF
:10013000B7010008B7010008B7010008B7010008BF
:10014000B7010008B7010008B7010008B7010008AF
:10015000B7010008B7010008B7010008B70100089F
:10016000B7010008B7010008B7010008B70100088F
:10017000B7010008B7010008B7010008000000003F
:10018000B7010008B7010008DFF80CD000F00EFB43
:1001900000480047BD220008500400200648804760
:1001A00006480047FEE7FEE7FEE7FEE7FEE7FEE75C
:1001B000FEE7FEE7FEE7FEE74919000889010008AF
:1001C00040EA01039B0703D009E008C9121F08C0D9
:1001D000042AFAD203E011F8013B00F8013B521E59
:1001E000F9D270472DE9FE4F804681EA0300C00F27
:1001F0000C46009021F0004123F00045B8EB0200CE
:10020000A94105D24046214690461C460B4602466F
:1002100023F00040104347D0270DC7F30A00C3F373
:100220000A510290401A019040286BDAC3F3130080
:1002300040F4801B0098924620B10023D2EB030AC1
:1002400063EB0B0B01985946C0F14002504600F099
:1002500055F906460D4650465946019A00F05DF99B
:1002600010EB08006141002487EA115284EAE77329
:100270001A4340D0009A62B3019A012A4FEA07520A
:1002800015DC001B61EB02014FF0004202EA07524D
:10029000CDE90042001C41F5801132462B4600F0AA
:1002A00094F903B0BDE8F08F40462146F9E7001B02
:1002B00061EB0201001C41F5801300185B4120181E
:1002C000A2F5001747EB030140EAD570B6196D415E
:1002D00011E06D084FEA360645EAC0754FEA07524D
:1002E000001B61EB0201001C41F5801149084FEA37
:1002F00030000019514132462B4603B0BDE8F04FA3
:1003000000F054B90098012240000023D0EB020213
:1003100063EBE073009821464FEAE074B8EB00000D
:1003200061EB0401E9E783F000435BE781F0004102
:1003300058E72DE9F04D81EA030404F0004B21F069
:10034000004514464FF0000A23F0004150EA050230
:1003500020D054EA01021DD0C5F30A570246C5F366
:100360001303C1F31300C1F30A5640F4801543F49C
:100370008013A7EB0608101BD64608F2FD3873EB76
:10038000050002D308F1010801E092185B41B8F1C1
:10039000000F03DA00200146BDE8F08D00204FF485
:1003A0008011064684460EE0171B73EB050705D344
:1003B000121B63EB050306434CEA010C49084FEAA4
:1003C000300092185B4150EA0107EDD152EA030078
:1003D00012D082EA040083EA0501084305D0101B0D
:1003E000AB4106D20122002306E000224FF0004379
:1003F00002E06FF0010253101AEB06004CEB0851BB
:1004000010EB0A0041EB0B01BDE8F04D00F0CEB857
:1004100000F0004230F000400AD0C10D01F56071DB
:10042000C0F3160042EA0151C20840071143704769
:1004300000200146704701F0004330B421F0004134
:1004400050EA010206D00A0DA2F56072C1F3130151
:10045000002A02DC30BC00207047440F44EAC1048B
:10046000C100E01830BC00EBC25000F068B830B5F5
:100470000B46014600202022012409E021FA02F562
:100480009D4205D303FA02F5491B04FA02F52844FC
:10049000151EA2F10102F1DC30BD2DE9F05F054629
:1004A000002092469B4688460646814640241BE033
:1004B000284641464746224600F08AF953465A46A6
:1004C000C01A914110D311461846224600F016F882
:1004D0002D1A67EB01084F4622460120002100F04B
:1004E0000DF817EB00094E41201EA4F10104DFDCDA
:1004F000484631462A464346BDE8F09F202A04DBA1
:10050000203A00FA02F1002070479140C2F1200326
:1005100020FA03F3194390407047202A06DBCB17DB
:10052000203A41FA02F043EAE07306E041FA02F3AE
:10053000D040C2F12002914008431946704700297B
:10054000A8BF7047401C490008BF20F00100704759
:1005500010B4B0FA80FC00FA0CF050EA010404BFB9
:1005600010BC704749B1CCF1200421FA04F411FA0F
:100570000CF118BF012121430843A3EB0C01CB1D53
:100580004FEA00614FEA102042BF002010BC7047C4
:1005900000EBC35010440029A4BF10BC7047401C9E
:1005A000490008BF20F0010010BC704710B5141EB0
:1005B00073F1000408DA401C41F1000192185B411C
:1005C0001A4301D120F0010010BD2DE9F04D9246F3
:1005D0009B4611B1B1FA81F202E0B0FA80F220320A
:1005E0009046FFF78BFF04460F4640EA0A0041EAB7
:1005F0000B0153465A46084313D0114653EA0100F3
:1006000019D0C8F14002504600F0E2F805460E4607
:10061000504659464246FFF771FF084305D0012076
:1006200004E020463946BDE8F08D0020054346EA47
:10063000E0762C4337430A986305E40AA0EB0800F0
:100640000022FD0A44EA47540A3002D50020014640
:10065000E9E7010510196941DDE90845001969411B
:10066000BDE8F04DA2E72DE9FE4F81EA030404F056
:10067000004421F0004100944FF0000B23F00043B0
:1006800050EA01045ED052EA03045BD0C3F30A547B
:10069000C1F30A552C44A4F2F3340194A0FB025494
:1006A000C1F3130141F48011C3F3130343F4801326
:1006B00001FB024400FB034E840A970A44EA81547A
:1006C00047EA8357A4FB076802958D0A05FB078557
:1006D0004FEA932C04FB0C542705029D4FEA065861
:1006E00047EA1637B5EB08056EEB070C870E920E3E
:1006F00047EA811742EA8312A7FB0201B6EB0B011E
:1007000064EB00042B0D43EA0C335E1844EB1C50E1
:10071000DA465146E7FB0201C5F313044FEA0B33F7
:1007200043EA14534FEA0432019C43EA0603A4F15E
:100730000C040294009CCDE900B4FFF746FF03B01F
:10074000BDE8F08F00200146F9E7C1F30A52C1F37A
:10075000130140F2FF3341F480119A4202DA002083
:100760000146704740F233439A42A2F2334202DC20
:10077000524200F02DB8FFF7C1BE000030B5041E94
:1007800071F1000404DB4FF00044404264EB0101CE
:10079000141E73F1000405DB1C464FF00043524267
:1007A00063EB0403994208BF904230BD064C074DED
:1007B00006E0E06840F0010394E807009847103431
:1007C000AC42F6D3FFF7E4FC682300088823000856
:1007D000202A04DB203A21FA02F00021704721FA96
:1007E00002F3D040C2F120029140084319467047FD
:1007F00030B5014610220260012242600022C26030
:10080000072282603CC881E83C0030BD5A49096833
:1008100021F44031594AC2F804131146D1F80413A7
:1008200042681143544A11600168496821F480719B
:100830000268516001684A68016942EA0121026860
:1008400051600168496821F0407102685160016897
:10085000496882681143026851600168896821F41F
:1008600000610268916001688968C268114302688A
:100870009160434AC16A914218D00168896821F0A9
:1008800070610268916001688968C26A11430268F8
:1008900091600168896821F04051026891600168A7
:1008A0008968026B1143026891600BE001688968F6
:1008B00021F07061026891600168896821F04051FF
:1008C000026891600168896821F002010268916004
:1008D00001688A68816942EA410102689160416A5F
:1008E000D1B10168496841F4006102685160016852
:1008F000496821F460410268516001684A68816A70
:10090000491E4FF4604393FAA3F3B3FA83F399407B
:100910000A4301684A6005E00168496821F4006102
:10092000026851600168C96A21F470010268D162ED
:100930000168CA6A018C491E42EA01510268D1620B
:100940000168896821F400710268916001688A6811
:10095000C16942EA4121026891600168896821F415
:1009600080610268916001688A68416942EA812178
:10097000026891607047000004230140002001409C
:100980000100000F1FB5194819490860012048638C
:1009900081F83D00002020606060A060E0600120E0
:1009A0002061002060610120E0611248A062002007
:1009B000E062302221460E48001DFFF701FC684628
:1009C000FFF716FF9DE80F0085E80F00294608484D
:1009D00000F03CF9064800F007FA10B1022000F0E0
:1009E00075F8034800F02AFA1FBD000000200140FE
:1009F0000C0000200100000F00BFFEE710B52DED38
:100A0000068B044600EE104AB8EE400AF7EE000AE4
:100A100020EE200AB0EE408A9FED230A28EE000A5D
:100A2000B0EE408A9FED210AC8EE000AB0EE608A5F
:100A300018EE100AFFF7ECFC41EC1A0B9FED1C0BB3
:100A400053EC102BFFF76FFC41EC190BFFF7F3FC95
:100A500008EE100A18EE100AFFF7DAFC41EC1A0B48
:100A60009FED150B53EC102BFFF763FC41EC190BBA
:100A7000FFF7E1FC08EE100A18EE100AFFF7C8FCB9
:100A800041EC1A0B9FED0E0B53EC102BFFF7AAFB5A
:100A900041EC190BFFF7CFFC08EE100AB0EE480A44
:100AA000BDEC068B10BD0000B98B3B3F00007A44C3
:100AB00052B81E85EB51E83F9A9999999999993FB7
:100AC00000000000000039407047000010B50446E7
:100AD000062C1CD2DFE804F003070B0F13170FA03E
:100AE00000F066FF17E019A000F062FF13E022A0FB
:100AF00000F05EFF0FE029A000F05AFF0BE036A0E7
:100B000000F056FF07E041A000F052FF03E048A0CC
:100B100000F04EFF00BF00BF10BD00004552524F15
:100B2000523A204572726F7220696E20696E697444
:100B300069616C6973696E672053797374656D20A0
:100B4000436C6F636B73200A000000004552524FE4
:100B5000523A204572726F7220696E20696E697414
:100B600069616C6973696E672054696D6572206292
:100B7000617365200A0000004552524F523A2045E9
:100B800072726F7220696E20696E697469616C6936
:100B900073696E6720414443200A00004552524F5A
:100BA000523A204572726F7220696E20696E6974C4
:100BB00069616C6973696E672041444320436861D1
:100BC0006E6E656C20436F6E6669677572617469DD
:100BD0006F6E200A000000004552524F523A2045E5
:100BE00072726F7220696E20696E697469616C69D6
:100BF00073696E6720414443204D756C74696D6F55
:100C000064655C444D41200A000000004552524F8B
:100C1000523A204572726F7220696E20696E697453
:100C200069616C6973696E672053504931200A000D
:100C30004552524F523A20414E204552524F522077
:100C40004F434355524544200A00000018B5024660
:100C50000020009000BF92F83C00012801D1022042
:100C600018BD012082F83C0000BF0868092816D989
:100C70001068C0680B780A3B03EB43040723A340CA
:100C800098431368D8600B780A3B03EB43038868EA
:100C900098401368DB6818431368D86013E0106845
:100CA00000690B7803EB43040723A34098431368C0
:100CB00018610B7803EB43038868984013681B693D
:100CC0001843136818614868072817D21068406BEA
:100CD0000B795B1E03EB83041F23A3409843136827
:100CE0005863088880B20B795B1E03EB830398403E
:100CF00013685B6B18431368586331E048680D282C
:100D000017D21068006B0B79DB1F03EB83041F23E2
:100D1000A340984313681863088880B20B79DB1FDF
:100D200003EB8303984013681B6B18431368186325
:100D300016E01068C06A0B790D3B03EB83041F2398
:100D4000A34098431368D862088880B20B790D3BA2
:100D500003EB830398401368DB6A18431368D86277
:100D60001B4B1068984208D10868122805D1194811
:100D7000006840F48000C3F80403154B10689842E3
:100D80001ED10868102802D00868112818D111480F
:100D9000006840F400000F4B1860086810280FD15D
:100DA0000D4800680D4BB0FBF3F000EB80004000F5
:100DB000009002E00098401E009000980028F9D1B1
:100DC00000BF002082F83C0000BF00BF48E70000E1
:100DD00000200140042301400400002040420F0095
:100DE00001460868C06C704710B504460CB9012074
:100DF00010BD1049E06A884200D000BF94F83D0061
:100E000028B9002084F83C00204600F015F80220A4
:100E100084F83D002046FFF7F9FC00202064012003
:100E200084F83D0000BF002084F83C0000BF00BFF4
:100E3000DEE700000100000F7047000008B5014622
:100E40000020009000BF91F83C00012801D1022051
:100E500008BD012081F83C0000BF91F83D00222828
:100E600003D1322081F83D0002E0122081F83D00DC
:100E70000868806800F00100A0B90868806840F048
:100E800001000A6890601B4800681B4AB0FBF2F042
:100E900000EB4000009002E00098401E0090009897
:100EA0000028F9D100BF002081F83C0000BF1348A2
:100EB000006800F01F0058B90868806800F04050D2
:100EC000A8B90868806840F080400A6890600EE029
:100ED0000B4A086890420AD10868806800F04050C8
:100EE00028B90868806840F080400A689060002057
:100EF000AEE700000400002040420F000423014040
:100F000000200140014800687047000000000020F8
:100F100002480068401C014908607047000000203A
:100F200010B50D48006840F400700B490860084691
:100F3000006840F4806008600846006840F48070F3
:100F40000860032000F060F80F2000F007F800F0C0
:100F500017F8002010BD0000003C024070B50446A8
:100F600000F0BEF94FF47A71B0FBF1F5284600F0BD
:100F700045FC00222146501E00F007F8002070BDFD
:100F800008B50020009000BF08BD2DE9F05F804645
:100F90000D461646002700F051FC074639462A4602
:100FA000334601F00700C0F1070ABAF1040F02D975
:100FB0004FF0040A01E0C0F1070AD14600F1040A2B
:100FC000BAF1070F02D24FF0000A01E0A0F1030AC4
:100FD000D4464FF0010A0AFA09FAAAF1010A0AEA0C
:100FE000020A0AFA0CFA4FF0010B0BFA0CFBABF1F8
:100FF000010B0BEA030B4AEA0B042146404600F0C2
:1010000025FCBDE8F09F000000BF00F00702064B82
:1010100019684FF6FF031940044B0B4343EA0221C2
:10102000014B196000BF70470CED00E00000FA05AD
:1010300070B504460E460025A748006800F00F0072
:10104000B0426FD2A4490E700846006800F00F004D
:10105000B04201D0012070BD207800F002000228CB
:1010600007D19E48006820F0F000A16808439B4922
:101070000860207800F0010000283ED06068012858
:1010800007D1964808380068C0F34040B8B901203D
:10109000E1E76068022802D06068032807D18F4822
:1010A00008380068C0F3406048B90120D3E78B4896
:1010B00008380068C0F3400008B90120CBE7874832
:1010C000006820F003006168084384490860FFF766
:1010D00019FF05466068012810D108E0FFF712FFEC
:1010E000401B41F28831884201D90320B3E77B4895
:1010F000006800F00C000428F0D1CDE06068022800
:1011000011D108E0FFF7FEFE401B41F28831884212
:1011100001D903209FE77148006800F00C000828FF
:10112000F0D1B9E024E06068032810D108E0FFF7AF
:10113000E9FE401B41F28831884201D903208AE749
:101140006648006800F00C000328F0D1A4E008E035
:10115000FFF7D8FE401B41F28831884201D90320B5
:1011600079E75E48006800F00C000028F0D193E0B9
:10117000207800F00200022807D15848006820F0CB
:10118000F000A168084355490860207800F001008C
:10119000002877D06068012807D1504808380068D7
:1011A000C0F34040B8B9012055E76068022802D07A
:1011B0006068032807D1494808380068C0F34060D8
:1011C00048B9012047E7454808380068C0F34000A7
:1011D00008B901203FE74148006820F0030061683A
:1011E00008433E490860FFF78DFE05466068012808
:1011F00010D108E0FFF786FE401B41F2883188429B
:1012000001D9032027E73548006800F00C000428C6
:10121000F0D137E06068022810D108E0FFF772FED5
:10122000401B41F28831884201D9032013E72B4843
:10123000006800F00C000828F0D123E06068032863
:1012400010D108E0FFF75EFE401B41F28831884272
:1012500001D90320FFE62148006800F00C000328B4
:10126000F0D10FE008E0FFF74DFE401B41F288315E
:10127000884201D90320EEE61848006800F00C000F
:101280000028F0D114490E700846006800F00F00E5
:10129000B04201D00120DEE6207800F004000428EE
:1012A00007D10E48006820F4E050E16808430B497C
:1012B0000860207800F00800082808D10748006876
:1012C00020F46040216940EAC100044908600F2011
:1012D000FFF744FE0020BEE6003C02400838024012
:1012E00010B500F019F80949096801F0F001F02281
:1012F00092FAA2F2B2FA82F2D140054A515CC84099
:10130000044908600846006810BD00000838024023
:10131000582300080400002070B50021002200239B
:101320000020274C246804F00C0424B1042C04D0C1
:10133000082C41D103E0234840E023483EE0204C04
:10134000241F246804F03F011D4C241F246804F46A
:10135000800484B11C4CB4FBF1F5194C241F2468A3
:1013600047F6C076344096FAA6F6B6FA86F6F4400A
:1013700005FB04F20FE0134CB4FBF1F5104C241FF5
:10138000246847F6C076344096FAA6F6B6FA86F692
:10139000F44005FB04F20A4C241F246804F4403492
:1013A0004FF4403595FAA5F5B5FA85F5EC40641C87
:1013B0006300B2FBF3F001E0024800BF00BF70BD64
:1013C000083802400024F40000127A0038B50446C0
:1013D0000025207800F00100002866D0F74800685A
:1013E00000F00C0004280DD0F448006800F00C0058
:1013F000082813D1F148001F006800F48000B0F500
:10140000800F0BD1ED4808380068C0F34040002839
:101410004BD06068002848D1012038BD0020E74942
:10142000891F0870FFF76EFD054608E0FFF76AFDAB
:10143000401B41F28831884201D90320EDE7DF48A3
:1014400008380068C0F340400028EFD12079DB491C
:10145000891F08706068A0B1FFF754FD054608E0D9
:10146000FFF750FD401B41F28831884201D903202B
:10147000D3E7D24808380068C0F340400028EFD0D6
:1014800013E0FFF73FFD054608E0FFF73BFD401B7B
:1014900041F28831884201D90320BEE7C7480838A5
:1014A0000068C0F340400028EFD1207800F002002F
:1014B000022869D1C148006800F00C0058B1BF484B
:1014C000006800F00C00082821D1BC48001F00680B
:1014D00000F48000D8B9B94808380068C0F340006B
:1014E00020B1E068012801D0012096E7B348083810
:1014F000006820F0F800F82292FAA2F2B2FA82F222
:10150000216991400843AD49083908603CE0E06832
:1015100028B30120AA490860FFF7F4FC054606E05D
:10152000FFF7F0FC401B642801D9032075E7A348AE
:1015300008380068C0F340000028F1D09F48083800
:10154000006820F0F800F82292FAA2F2B2FA82F2D1
:1015500021699140084399490839086014E0002046
:1015600097490860FFF7CEFC054606E0FFF7CAFC86
:10157000401B642801D903204FE7904808380068D1
:10158000C0F340000028F1D1207800F008000828BE
:101590002CD16069A8B101208A490860FFF7B2FC2C
:1015A000054606E0FFF7AEFC401B642801D9032086
:1015B00033E782486C300068C0F340000028F1D067
:1015C00014E000207F490860FFF79CFC054606E018
:1015D000FFF798FC401B642801D903201DE77748DA
:1015E0006C300068C0F340000028F1D1207800F092
:1015F000040004286FD100BF002000906F483830ED
:10160000006840F080506D49383108600846006835
:1016100000F08050009000BF00BF6B48006840F4AD
:10162000807069490860FFF76DFC054606E0FFF72A
:1016300069FC401B642801D90320EEE6624800687B
:1016400000F480700028F2D000205C4968310870F6
:10165000FFF758FC054608E0FFF754FC401B41F239
:101660008831884201D90320D7E6544868300068A1
:10167000C0F340000028EFD1207A5049683108704B
:10168000A068A0B1FFF73EFC054608E0FFF73AFC72
:10169000401B41F28831884201D90320BDE647480A
:1016A00068300068C0F340000028EFD013E0FFF777
:1016B00029FC054608E0FFF725FC401B41F2883174
:1016C000884201D90320A8E63C4868300068C0F38E
:1016D00040000028EFD1A069F0B33848006800F05E
:1016E0000C00082872D0A069022850D1002034498B
:1016F0000866FFF707FC054606E0FFF703FC401B02
:10170000642801D9032088E62C4808380068C0F313
:1017100040600028F1D1D4E90701084347F6C072C0
:1017200092FAA2F2B2FA82F2616A9140084301226F
:10173000A16AC2EB51014FF4403292FAA2F2B2FA1E
:1017400082F2914008434FF0706292FAA2F2B2FA2C
:1017500082F2E16A914000E03AE008431749091F2C
:101760000860012016490866FFF7CCFB054606E035
:10177000FFF7C8FB401B642801D903204DE60F4842
:1017800008380068C0F340600028F1D020E0002055
:101790000B490866FFF7B6FB054606E0FFF7B2FB0C
:1017A000401B642801D9032037E604480838006844
:1017B000C0F340600028F1D10AE007E00838024099
:1017C00000004742800E474200700040012024E69E
:1017D000002022E6042808D14FF0E021096941F0F9
:1017E00004014FF0E022116107E04FF0E0210969A8
:1017F00021F004014FF0E0221161704770B50446FA
:101800002546681EB0F1807F01D301200FE0681EDD
:101810004FF0E02148610F214FF0FF3000F016F843
:1018200000204FF0E021886107200861002070BD92
:1018300000BFFEE700BFFEE77047000002480068F7
:10184000C0F30220704700000CED00E010B5002846
:1018500007DA0A07140E054A00F00F031B1FD454C1
:1018600003E00A07130E024A135410BD18ED00E0FE
:1018700000E400E07047704710B5FFF749FB10BD6A
:1018800010B592B000BF002000902D48006840F0D5
:1018900080502B4908600846006800F08050009096
:1018A00000BF00BF00BF002000902648006840F441
:1018B0008040244908600846006800F48040009099
:1018C00000BF00BF01200690079002200C90410548
:1018D0000D9108210E914FF4A8710F9102211091E2
:1018E0000721119106A8FFF771FD10B10020FFF745
:1018F000EDF80D20019002200290002003904FF49B
:10190000A05004904FF480500590052101A8FFF7E6
:101910008FFB10B10020FFF7D9F8FFF7E1FC4FF47F
:101920007A71B0FBF1F42046FFF768FF0420FFF75F
:1019300051FF00221146501EFFF727FB12B010BDC9
:1019400040380240007000401448006840F47000C5
:10195000124908601248006840F001001049086010
:1019600000200F49083108600D4800680D49084003
:101970000B4908600C48091D0860081F006820F426
:101980008020091F0860002005490C3108604FF0D5
:1019900000600249803908607047000088ED00E06F
:1019A00000380240FFFFF6FE1030002400BFFEE7C3
:1019B0000FB4054B10B503A9044A029800F0CAF809
:1019C00010BC5DF814FB0000852200080800002010
:1019D00002E008C8121F08C1002AFAD170477047F8
:1019E000002001E001C1121F002AFBD17047000056
:1019F0002DE9FF5FDDE90220010DDDF838B002437B
:101A000018D044F61050A1F2FF3141430D140F9845
:101A1000012820D0A5EB0B00401C5FEA000A4FF024
:101A20000004474EDFF81C91A046504616D5CAF177
:101A3000000728E00F98012443A2012808D00021C4
:101A400000980F9BC0E90021C0E90243BDE8FF9F59
:101A50006FEA0B01F4E7CBF10000DEE7074612E086
:101A6000F80707D02246334640464946FEF7FBFDBD
:101A7000804689462246334610461946FEF7F3FD56
:101A800004460E467F10002FEAD1DDE90201BAF1CB
:101A9000000F42464B4602DAFEF7E5FD01E0FEF795
:101AA00048FC04460E460022284BFEF767FE03D88A
:101AB0004FF0FF30014607E00022254B204631461B
:101AC000FEF790FBFEF741FE102409E0002C0ADB34
:101AD0000A220023FEF7E1FC019B30321A55641EF6
:101AE00050EA0102F2D1641C019AC4F111031444BA
:101AF0000F9A012A03D0012208430DD10AE00843BE
:101B000004D000204FF0110B0F9080E7A3EB0B05E2
:101B10006D1E0DE05B4504DD4FF0000205F101058F
:101B200004E003DA4FF00002A5F10105002AECD031
:101B300000980F99C0E90231C0E9004586E700002E
:101B4000000024400000F03F300000000000F0439F
:101B50000000E03F2DE9FF4F95B09B4689460646C1
:101B600000250FE2252877D100242746F84A0121D5
:101B7000059400E0044316F8013F203B01FA03F00E
:101B80001042F7D130782A2811D06FF02F03307827
:101B9000A0F13002092A16D8059A44F0020402EB9B
:101BA000820203EB42021044761C0590EFE759F8DD
:101BB000042B0592002A03DA504244F400540590A5
:101BC00044F00204761C30782E2816D116F8010F46
:101BD00044F004042A280DD06FF02F023078A0F1D1
:101BE0003003092B09D807EB870302EB4303C7181F
:101BF000761CF3E759F8047B761C30786C280FD0FC
:101C000006DC4C2817D068280DD06A2814D104E0CF
:101C1000742810D07A280FD10DE044F400140AE0A3
:101C200044F4801401E044F440147278824202D1FA
:101C300004F58014761C761C307866280BD013DCF3
:101C4000582877D009DC002875D04528F6D04628DA
:101C5000F4D047281AD19DE118E0632835D06428D4
:101C600079D0652812D195E1702873D008DC6728F7
:101C7000F1D069286FD06E280DD06F2806D1B5E05D
:101C800073282CD0752875D0782874D05A461799A7
:101C900090476D1C75E1C4F30250022809D0032857
:101CA0000DD0D9F8001004280DD00D6009F10409F9
:101CB00067E1D9F80010EA17C1E90052F6E7D9F850
:101CC00000100D80F2E70D70F0E719F8041B8DF895
:101CD000001000208DF80100EA46012003E059F8C9
:101CE00004AB4FF0FF3061074FF0000102D40DE06C
:101CF00008F101018846B9420FDA8045F8DB1AF88D
:101D000008100029F4D108E008F101018846814259
:101D1000FADB1AF808100029F6D105985B46A0EB0B
:101D2000080721463846179A00F094FA284400EB39
:101D3000080507E04DE029E10DE01AF8010B5A46CD
:101D400017999047B8F10108F7D25B46214638460B
:101D5000179A13E142E00A220092C4F302524FF0B4
:101D6000000A022A08D059F804CB032A4FEAEC7182
:101D70000AD00DE029E02AE009F1070121F007026D
:101D8000F2E802C1914609E00FFA8CFC4FEAEC71CF
:101D9000042A03D14FFA8CFC4FEAEC71002907DAD0
:101DA0000A460021DCF1000C61EB02012D2202E069
:101DB000220504D52B228DF80420012203E0E2073E
:101DC00001D02022F7E7904659E00A2102E01022D4
:101DD0000DE010214FF0000A00910BE010224FF0AF
:101DE000000A44F004040827009203E008224FF0A0
:101DF000000A0092C4F30252022A05D059F804CB1B
:101E00000021032A08D009E009F1070121F00702A7
:101E1000F2E802C1914605E01FFA8CFC042A01D1C8
:101E20000CF0FF0C4FF00008220728D5702806D0D0
:101E3000009B83F0100353EA0A0305D00EE0402212
:101E40008DF80420012208E05CEA010206D030226D
:101E50008DF804208DF8050002229046009B83F047
:101E6000080353EA0A030AD15CEA010201D16207BE
:101E700005D530228DF804204FF001087F1E582828
:101E800004D034A003900EA802900DE036A0F9E72C
:101E900053466046009AFEF700FB84460398825C36
:101EA0000298401E029002705CEA0100F0D1029894
:101EB00006A9081A00F1200A600702D524F480342C
:101EC00000E00127574502DDA7EB0A0000E00020F3
:101ED00000EB0A01009005984144401A0590E00388
:101EE00006D45B462146179A059800F0B3F90544DD
:101EF000002706E001A85A46C05D179990476D1C5F
:101F00007F1C4745F6DBE0030CD55B462146179A5C
:101F1000059800F09FF9054404E030205A461799CF
:101F200090476D1C0099481E00900029F5DC08E0E0
:101F3000029802995A460078491C029117999047D5
:101F40006D1CBAF10001AAF1010AF1DC65E10000A3
:101F5000092801003031323334353637383961627F
:101F60006364656600000000303132333435363743
:101F700038394142434445460000000000F058F91A
:101F80000544761C307800287FF4ECAD19B0284663
:101F9000BDE8F08F620700D4062709F1070222F09E
:101FA000070CFCE80223E14603F000485FEA080C56
:101FB00002D00FF2702C0DE05FEA045C02D50FF244
:101FC000682C07E05FEAC47C02D00FF2602C01E0CD
:101FD000AFF2700C4FF0FF3823F00043CDF850C043
:101FE00065280CD006DC452809D046281DD0472896
:101FF0003DD13DE0662818D067287ED138E0002129
:10200000112F01DB112000E0781CCDE9000106A9A9
:102010000EA8FFF7EDFCDDE90F010E9A03910021F8
:10202000009207F1010A04914DE04FF00040009743
:10203000CDE9011006A90EA8FFF7DAFCDDE90F02D1
:1020400003920E9B11990022DDF80CA000930492DC
:1020500011B9791C00EB010AB7EB0A0004D4C0F1F6
:10206000FF3007F1010A0490AAEB0700019044E059
:10207000012F00DA01270021112F01DD112000E0DE
:102080003846CDE9000106A90EA8FFF7B1FCDDE94D
:102090000F010E9A0391002104910092BA46210784
:1020A0000CD40399514500DA8A46BAF1010F05DDD7
:1020B000009AAAF10101515C302908D0B84202DA35
:1020C00010F1040F06DA0121CDE9011015E0AAF1A3
:1020D0000101E9E7002805DC049901440491AAEB19
:1020E000000102E0411C514500DD8A460499401A76
:1020F000401C01904FF000400290200704D401984A
:10210000504501DBCDF8048000208DF84F00029887
:102110000DF14F07B0F1004F25D02B200E90029803
:102120004FF0020800280CDA404202902D200E9059
:1021300007E00A210298FEF79AF93031029007F879
:10214000011DB8F10001A8F10108F2DC0298002895
:10215000EFD1791E0E980870307800F0200040F022
:10216000450007F8020D12A8C01B00F107081498DB
:10217000007800B1012000EB0A01019801EBE07149
:1021800005984144401A401E0590E00306D45B4682
:102190002146179A059800F05DF8054414980078D8
:1021A00018B15A46179990476D1CE00324D55B4639
:1021B0002146179A059800F04DF805441CE0049854
:1021C000002807DBDDE90301884203DD0098405C5D
:1021D000179901E0179930205A469047049805F165
:1021E0000105401C04900198401E019004D12E204E
:1021F0005A46179990476D1CBAF10001AAF1010ADD
:10220000DDDC05E017F8010B5A46179990476D1C65
:10221000B8F10001A8F10108F4DC5B462146179AE9
:102220000598ABE62D0000002B0000002000000008
:102230002DE9F041044600251E461746880404D4C3
:1022400005E039462020B0476D1C641EF9D52846AC
:10225000BDE8F0812DE9F041044600251E46904678
:10226000C80301D5302700E02027880404D505E005
:1022700041463846B0476D1C641EF9D52846BDE876
:10228000F081000010B5024610460B4B1B6803F0AE
:1022900001037BB1084B803B1B6803F001034BB18A
:1022A00000E000BF4FF060431B68002BF9D04FF0F7
:1022B0006044207000BF10BD800E00E02DED048B47
:1022C00082B0FEF72DFEFFF7DBFA00BF0020019081
:1022D0001248006840F480701049086008460068A1
:1022E00000F48070019000BF00BFFEF74BFB14E0CC
:1022F0000B48FEF775FD04462046FEF77FFBB0EE67
:10230000408A18EE100AFEF783F841EC190B53ECE3
:10231000192B04A00094FFF74BFBE9E74438024077
:102320000C00002054454D50455241545552452013
:102330002566203C2D2D2D2D2D2D2D2D2D2D2D2D9A
:102340002D2D2D2D2D2D2D3E20564F4C54414745E2
:102350002025640A000000000000000001020304C0
:102360000102030406070809882300080000002072
:102370000C000000D0190008942300080C00002075
:1023800044040000E0190008000000000024F400EC
:042390000000000049
:040000050800018965
:00000001FF
