:020000040800F2
:10000000880400209D010008111C0008611B0008E5
:100010000D1C000805080008BD1E000800000000B7
:10002000000000000000000000000000751D000836
:10003000C5080008000000004D1C0008791D0008DC
:10004000B7010008B7010008B7010008B7010008B0
:10005000B7010008B7010008B7010008B7010008A0
:10006000B7010008B7010008B7010008B701000890
:10007000B7010008B7010008B7010008B701000880
:10008000B7010008B7010008B7010008B701000870
:10009000B7010008B7010008B7010008B701000860
:1000A000B7010008B7010008B7010008B701000850
:1000B000B7010008B7010008B7010008B701000840
:1000C000B7010008B7010008B7010008B701000830
:1000D000B7010008B7010008B7010008B701000820
:1000E000B7010008B7010008B7010008B701000810
:1000F000B7010008B7010008B7010008B701000800
:10010000B7010008B7010008B7010008B7010008EF
:10011000B7010008B7010008B7010008B7010008DF
:10012000B7010008B7010008B7010008B7010008CF
:10013000B7010008B7010008B7010008B7010008BF
:10014000B7010008B7010008B7010008B7010008AF
:10015000B7010008B7010008B7010008B70100089F
:10016000B7010008B7010008B7010008B70100088F
:10017000B7010008B7010008B7010008000000003F
:10018000B7010008B7010008DFF80CD000F012FA40
:1001900000480047491F000888040020064880479F
:1001A00006480047FEE7FEE7FEE7FEE7FEE7FEE75C
:1001B000FEE7FEE7FEE7FEE7591E0008890100089A
:1001C0002DE9FE4F804681EA0300C00F0C460090E7
:1001D00021F0004123F00045B8EB0200A94105D20F
:1001E0004046214690461C460B46024623F00040FE
:1001F000104347D0270DC7F30A00C3F30A510290FA
:10020000401A019040286BDAC3F3130040F4801BBE
:100210000098924620B10023D2EB030A63EB0B0B4C
:1002200001985946C0F14002504600F00EF90646CA
:100230000D4650465946019A00F016F910EB080099
:100240006141002487EA115284EAE7731A4340D0DF
:10025000009A62B3019A012A4FEA075215DC001B8B
:1002600061EB02014FF0004202EA0752CDE9004281
:10027000001C41F5801132462B4600F04DF903B0C9
:10028000BDE8F08F40462146F9E7001B61EB020113
:10029000001C41F5801300185B412018A2F50017DF
:1002A00047EB030140EAD570B6196D4111E06D08C6
:1002B0004FEA360645EAC0754FEA0752001B61EB6C
:1002C0000201001C41F5801149084FEA3000001975
:1002D000514132462B4603B0BDE8F04F00F00DB956
:1002E0000098012240000023D0EB020263EBE07390
:1002F000009821464FEAE074B8EB000061EB04017E
:10030000E9E783F000435BE781F0004158E72DE91E
:10031000F04D81EA030404F0004B21F0004514463F
:100320004FF0000A23F0004150EA050220D054EAC1
:1003300001021DD0C5F30A570246C5F31303C1F3EA
:100340001300C1F30A5640F4801543F48013A7EB61
:100350000608101BD64608F2FD3873EB050002D3E1
:1003600008F1010801E092185B41B8F1000F03DACF
:1003700000200146BDE8F08D00204FF480110646B4
:1003800084460EE0171B73EB050705D3121B63EBC6
:10039000050306434CEA010C49084FEA3000921865
:1003A0005B4150EA0107EDD152EA030012D082EA24
:1003B000040083EA0501084305D0101BAB4106D2B7
:1003C0000122002306E000224FF0004302E06FF01C
:1003D000010253101AEB06004CEB085110EB0A0017
:1003E00041EB0B01BDE8F04D00F087B800F0004292
:1003F00030F000400AD0C10D01F56071C0F3160065
:1004000042EA0151C20840071143704700200146EB
:10041000704701F0004330B421F0004150EA01027E
:1004200006D00A0DA2F56072C1F31301002A02DCA6
:1004300030BC00207047440F44EAC104C100E018FA
:1004400030BC00EBC25000F021B8202A04DB203A77
:1004500000FA02F1002070479140C2F1200320FA17
:1004600003F3194390407047202A06DBCB17203A4C
:1004700041FA02F043EAE07306E041FA02F3D040A9
:10048000C2F1200291400843194670470029A8BFD5
:100490007047401C490008BF20F00100704710B4AD
:1004A000B0FA80FC00FA0CF050EA010404BF10BC62
:1004B000704749B1CCF1200421FA04F411FA0CF18F
:1004C00018BF012121430843A3EB0C01CB1D4FEAC8
:1004D00000614FEA102042BF002010BC704700EBC3
:1004E000C35010440029A4BF10BC7047401C4900F1
:1004F00008BF20F0010010BC704710B5141E73F146
:10050000000408DA401C41F1000192185B411A43D3
:1005100001D120F0010010BD2DE9F04D92469B461F
:1005200011B1B1FA81F202E0B0FA80F220329046C5
:10053000FFF78BFF04460F4640EA0A0041EA0B0131
:1005400053465A46084313D0114653EA010019D0C6
:10055000C8F14002504600F03FF805460E465046AE
:1005600059464246FFF771FF084305D0012004E0D9
:1005700020463946BDE8F08D0020054346EAE07686
:100580002C4337430A986305E40AA0EB08000022D5
:10059000FD0A44EA47540A3002D500200146E9E743
:1005A000010510196941DDE9084500196941BDE8F7
:1005B000F04DA2E7064C074D06E0E06840F001036D
:1005C00094E8070098471034AC42F6D3FFF7E0FDFB
:1005D000A8200008C8200008202A04DB203A21FABD
:1005E00002F00021704721FA02F3D040C2F120024C
:1005F00091400843194670475A49096821F440312F
:10060000594AC2F804131146D1F804134268114341
:10061000544A11600168496821F480710268516090
:1006200001684A68016942EA012102685160016873
:10063000496821F040710268516001684968826828
:100640001143026851600168896821F40061026801
:10065000916001688968C268114302689160434AE9
:10066000C16A914218D00168896821F070610268FE
:10067000916001688968C26A1143026891600168EB
:10068000896821F040510268916001688968026BB5
:100690001143026891600BE00168896821F0706184
:1006A000026891600168896821F040510268916098
:1006B0000168896821F002010268916001688A6816
:1006C000816942EA410102689160416AD1B10168E1
:1006D000496841F40061026851600168496821F489
:1006E00060410268516001684A68816A491E4FF49E
:1006F000604393FAA3F3B3FA83F399400A43016882
:100700004A6005E00168496821F4006102685160AF
:100710000168C96A21F470010268D1620168CA6A7D
:10072000018C491E42EA01510268D1620168896860
:1007300021F400710268916001688A68C16942EA27
:100740004121026891600168896821F48061026832
:10075000916001688A68416942EA8121026891607A
:100760007047000004230140002001400100000FF9
:1007700000B585B02048214908600120486381F810
:100780003D000004486000211C488160C160016197
:100790004161012181610021C161012101620021CA
:1007A00041628162C16201631020019001200290C8
:1007B000072003900020049000BF009010480068BC
:1007C00040F480700E4908600846006800F48070AC
:1007D000009000BF00BF094800F092FB10B102205A
:1007E00000F0A8F901A9054800F0BCFA034800F0A0
:1007F000B1FB05B000BD0000002001401800002042
:100800004438024000BFFEE710B52DED068B0446CC
:1008100000EE104AB8EE400AF7EE000A20EE200A79
:10082000B0EE408A9FED200A28EE000AB0EE408A22
:1008300018EE100AFFF7DAFD41EC1A0B9FED1B0BC7
:1008400053EC102BFFF75DFD41EC190BFFF7E1FDB9
:1008500008EE100A18EE100AFFF7C8FD41EC1A0B5B
:100860009FED140B53EC102BFFF751FD41EC190BCE
:10087000FFF7CFFD08EE100A18EE100AFFF7B6FDDD
:1008800041EC1A0B9FED0D0B53EC102BFFF798FC6E
:1008900041EC190BFFF7BDFD08EE100AB0EE480A57
:1008A000BDEC068B10BD00006740533A52B81E8560
:1008B000EB51E83F9A9999999999993F0000000066
:1008C000000039407047000070B504460D46012C09
:1008D00006D0022C0AD0032C0ED0042C18D111E023
:1008E00001221102914800F09FFC11E00122510207
:1008F0008E4800F099FC0BE0012291028B4800F039
:1009000093FC05E00122D102884800F08DFC00BF75
:1009100000BF681C0B280CD2DFE800F006E70C17BC
:10092000314B607A99A9CD0001229103804800F0F3
:100930007BFCF9E0012211027D4800F075FC0122E8
:1009400051027B4800F070FCEEE0012280217848E3
:1009500000F06AFC01221102754800F065FC0122DA
:100960005103734800F060FC0122D102704800F08E
:100970005BFC012291026E4800F056FCD4E001229B
:1009800080216B4800F050FC01221102684800F001
:100990004BFC01225103664800F046FC0122510243
:1009A000634800F041FC01229102614800F03CFCE8
:1009B000BAE0012211035E4800F036FC0122510327
:1009C0005B4800F031FC01221102594800F02CFC78
:1009D00001225102564800F027FCA5E001228021A7
:1009E000534800F021FC01221103514800F01CFC87
:1009F000012251034E4800F017FC012251024C48DD
:100A000000F012FC01229102494800F00DFC8BE03D
:100A100001228021464800F007FC012211034448CE
:100A200000F002FC01225103414800F0FDFB0122CD
:100A300051023F4800F0F8FB012291023C4800F0CF
:100A4000F3FB0122D1023A4800F0EEFB6CE00122F8
:100A50001102374800F0E8FB01225102344800F04F
:100A6000E3FB01228021324800F0DEFB5CE0012242
:100A700080212F4800F0D8FB012211022C4800F001
:100A8000D3FB012251022A4800F0CEFB0122910241
:100A9000274800F0C9FB0122D102254800F0C4FB21
:100AA00001221103224800F0BFFB0122510320481C
:100AB00000F0BAFB38E0012280211D4800F0B4FBB1
:100AC000012211021A4800F0AFFB0122510218481E
:100AD00000F0AAFB01221103154800F0A5FB01223A
:100AE0005103134800F0A0FB1EE0012280211048B2
:100AF00000F09AFB012211020D4800F095FB012243
:100B000051020B4800F090FB01229102084800F0CE
:100B10008BFB0122D102064800F086FB0122110363
:100B2000034800F081FB00BF00BF70BD000C024015
:100B30000010024010B50446062C1CD2DFE804F079
:100B400003070B0F13170FA001F0BAF917E019A054
:100B500001F0B6F913E022A001F0B2F90FE029A0EC
:100B600001F0AEF90BE036A001F0AAF907E041A0D0
:100B700001F0A6F903E048A001F0A2F900BF00BF10
:100B800010BD00004552524F523A204572726F72AA
:100B900020696E20696E697469616C6973696E673A
:100BA0002053797374656D20436C6F636B73200AF7
:100BB000000000004552524F523A204572726F7247
:100BC00020696E20696E697469616C6973696E670A
:100BD0002054696D65722062617365200A0000000F
:100BE0004552524F523A204572726F7220696E2000
:100BF000696E697469616C6973696E672041444309
:100C0000200A00004552524F523A204572726F72CC
:100C100020696E20696E697469616C6973696E67B9
:100C200020414443204368616E6E656C20436F6EC3
:100C300066696775726174696F6E200A0000000052
:100C40004552524F523A204572726F7220696E209F
:100C5000696E697469616C6973696E6720414443A8
:100C6000204D756C74696D6F64655C444D41200A5C
:100C7000000000004552524F523A204572726F7286
:100C800020696E20696E697469616C6973696E6749
:100C90002053504931200A004552524F523A2041C8
:100CA0004E204552524F52204F4343555245442007
:100CB0000A00000008B54FF47F401C49086001207D
:100CC000486088600320C8604FF47E50184908606F
:100CD0000120486088600320C86000BF00200090A9
:100CE0001448006840F0080012490860084600688F
:100CF00000F00800009000BF00BF00BF002000907F
:100D00000846006840F0100008600846006800F0DF
:100D10001000009000BF00BF0449074800F07EF9B2
:100D20000349064800F07AF908BD00005C00002085
:100D30007000002030380240000C024000100240D9
:100D400010B50146F2EE040A60EE200AFDEEE00A5C
:100D500010EE900A90FBF1F20A2392FBF3F403FBEE
:100D6000142010BD18B502460020009000BF92F874
:100D70003C00012801D1022018BD012082F83C006E
:100D800000BF0868092816D91068C0680B780A3BAC
:100D900003EB43040723A34098431368D8600B7800
:100DA0000A3B03EB4303886898401368DB681843E9
:100DB0001368D86013E0106800690B7803EB4304F4
:100DC0000723A3409843136818610B7803EB430390
:100DD0008868984013681B6918431368186148684D
:100DE000072817D21068406B0B795B1E03EB830456
:100DF0001F23A340984313685863088880B20B7977
:100E00005B1E03EB8303984013685B6B1843136806
:100E1000586331E048680D2817D21068006B0B79D1
:100E2000DB1F03EB83041F23A3409843136818635D
:100E3000088880B20B79DB1F03EB830398401368AB
:100E40001B6B18431368186316E01068C06A0B79AF
:100E50000D3B03EB83041F23A34098431368D86220
:100E6000088880B20B790D3B03EB8303984013682D
:100E7000DB6A18431368D8621B4B1068984208D18C
:100E80000868122805D11948006840F48000C3F8AA
:100E90000403154B106898421ED10868102802D030
:100EA0000868112818D11148006840F400000F4B61
:100EB0001860086810280FD10D4800680D4BB0FB72
:100EC000F3F000EB80004000009002E00098401E2C
:100ED000009000980028F9D100BF002082F83C0063
:100EE00000BF00BF48E7000000200140042301408C
:100EF0001000002040420F0001460868C06C704797
:100F000010B504460CB9012010BD1049E06A8842B2
:100F100000D000BF94F83D0028B9002084F83C00C0
:100F2000204600F015F8022084F83D002046FFF727
:100F300063FB00202064012084F83D0000BF0020F6
:100F400084F83C0000BF00BFDEE700000100000F96
:100F50007047000008B501460020009000BF91F8DE
:100F60003C00012801D1022008BD012081F83C008D
:100F700000BF91F83D00222803D1322081F83D00C6
:100F800002E0122081F83D000868806800F001004E
:100F9000A0B90868806840F001000A6890601B48AA
:100FA00000681B4AB0FBF2F000EB4000009002E04A
:100FB0000098401E009000980028F9D100BF002042
:100FC00081F83C0000BF1348006800F01F0058B9CA
:100FD0000868806800F04050A8B90868806840F050
:100FE00080400A6890600EE00B4A086890420AD17F
:100FF0000868806800F0405028B90868806840F0B0
:1010000080400A6890600020AEE7000010000020D9
:1010100040420F000423014000200140F8B5024681
:101020000B460025002400200021E1E0012606FAFD
:1010300001F51E6806EA0504AC4273D15E68022E13
:1010400002D05E68122E13D1CF0802F1200656F8A6
:1010500027004E07F70E0F26BE40B0434F07FF0E86
:101060001E69BE403043CF0802F1200646F8270033
:1010700010684F000326BE40B0431E7906F00306F9
:101080004F00BE40304310605E68012E08D05E689D
:10109000022E05D05E68112E02D05E68122E13D18A
:1010A00090684F000326BE40B0434F00DE68BE404C
:1010B00030439060506801268E40B0431E79C6F3DD
:1010C00000168E4030435060D0684F000326BE406B
:1010D000B0434F009E68BE403043D0605E6806F06B
:1010E0008056B6F1805FA8D100BF00260096424E20
:1010F000366846F48046404F3E603E46366806F409
:101100008046009600BF00BF3C4E8F0856F827006F
:101110008E07370F0F26BE40B043394EB24202D180
:10112000002629E063E0374EB24201D1012623E0D8
:10113000354EB24201D102261EE0344EB24201D1F8
:10114000032619E0324EB24201D1042614E0314E9A
:10115000B24201D105260FE02F4EB24201D1062640
:101160000AE02E4EB24201D1072605E02C4EB242D3
:1011700001D1082600E009268F073F0FBE4030430B
:101180001E4E8F0846F82700264E3068A0435E6842
:1011900006F48036B6F5803F00D12043214E306002
:1011A000361D3068A0435E6806F40036B6F5003F91
:1011B00000D120431B4E361D3060361D3068A043E1
:1011C0005E6806F48016B6F5801F00D12043154EE8
:1011D00008363060361D3068A0435E6806F400169D
:1011E000B6F5001F00D120430E4E0C363060491C6E
:1011F0001029FFF41BAFF8BD443802400838014005
:10120000000002400004024000080240000C0240BE
:10121000001002400014024000180240001C02406E
:1012200000200240003C01400AB1816101E00B0452
:101230008361704701480068704700000C0000207F
:1012400002480068401C0149086070470C000020FB
:1012500010B50D48006840F400700B49086008465E
:10126000006840F4806008600846006840F48070C0
:101270000860032000F060F80F2000F007F800F08D
:1012800017F8002010BD0000003C024070B5044675
:1012900000F0BEF94FF47A71B0FBF1F5284600F08A
:1012A00045FC00222146501E00F007F8002070BDCA
:1012B00008B50020009000BF08BD2DE9F05F804612
:1012C0000D461646002700F0A5FC074639462A467B
:1012D000334601F00700C0F1070ABAF1040F02D942
:1012E0004FF0040A01E0C0F1070AD14600F1040AF8
:1012F000BAF1070F02D24FF0000A01E0A0F1030A91
:10130000D4464FF0010A0AFA09FAAAF1010A0AEAD8
:10131000020A0AFA0CFA4FF0010B0BFA0CFBABF1C4
:10132000010B0BEA030B4AEA0B042146404600F08E
:1013300079FCBDE8F09F000000BF00F00702064BFB
:1013400019684FF6FF031940044B0B4343EA02218F
:10135000014B196000BF70470CED00E00000FA057A
:1013600070B504460E460025A748006800F00F003F
:10137000B0426FD2A4490E700846006800F00F001A
:10138000B04201D0012070BD207800F00200022898
:1013900007D19E48006820F0F000A16808439B49EF
:1013A0000860207800F0010000283ED06068012825
:1013B00007D1964808380068C0F34040B8B901200A
:1013C000E1E76068022802D06068032807D18F48EF
:1013D00008380068C0F3406048B90120D3E78B4863
:1013E00008380068C0F3400008B90120CBE78748FF
:1013F000006820F003006168084384490860FFF733
:1014000019FF05466068012810D108E0FFF712FFB8
:10141000401B41F28831884201D90320B3E77B4861
:10142000006800F00C000428F0D1CDE060680228CC
:1014300011D108E0FFF7FEFE401B41F288318842DF
:1014400001D903209FE77148006800F00C000828CC
:10145000F0D1B9E024E06068032810D108E0FFF77C
:10146000E9FE401B41F28831884201D903208AE716
:101470006648006800F00C000328F0D1A4E008E002
:10148000FFF7D8FE401B41F28831884201D9032082
:1014900079E75E48006800F00C000028F0D193E086
:1014A000207800F00200022807D15848006820F098
:1014B000F000A168084355490860207800F0010059
:1014C000002877D06068012807D1504808380068A4
:1014D000C0F34040B8B9012055E76068022802D047
:1014E0006068032807D1494808380068C0F34060A5
:1014F00048B9012047E7454808380068C0F3400074
:1015000008B901203FE74148006820F00300616806
:1015100008433E490860FFF78DFE054660680128D4
:1015200010D108E0FFF786FE401B41F28831884267
:1015300001D9032027E73548006800F00C00042893
:10154000F0D137E06068022810D108E0FFF772FEA2
:10155000401B41F28831884201D9032013E72B4810
:10156000006800F00C000828F0D123E06068032830
:1015700010D108E0FFF75EFE401B41F2883188423F
:1015800001D90320FFE62148006800F00C00032881
:10159000F0D10FE008E0FFF74DFE401B41F288312B
:1015A000884201D90320EEE61848006800F00C00DC
:1015B0000028F0D114490E700846006800F00F00B2
:1015C000B04201D00120DEE6207800F004000428BB
:1015D00007D10E48006820F4E050E16808430B4949
:1015E0000860207800F00800082808D10748006843
:1015F00020F46040216940EAC100044908600F20DE
:10160000FFF744FE0020BEE6003C024008380240DE
:1016100010B500F019F80949096801F0F001F0224D
:1016200092FAA2F2B2FA82F2D140054A515CC84065
:10163000044908600846006810BD000008380240F0
:10164000982000081000002070B50021002200231F
:101650000020274C246804F00C0424B1042C04D08E
:10166000082C41D103E0234840E023483EE0204CD1
:10167000241F246804F03F011D4C241F246804F437
:10168000800484B11C4CB4FBF1F5194C241F246870
:1016900047F6C076344096FAA6F6B6FA86F6F440D7
:1016A00005FB04F20FE0134CB4FBF1F5104C241FC2
:1016B000246847F6C076344096FAA6F6B6FA86F65F
:1016C000F44005FB04F20A4C241F246804F440345F
:1016D0004FF4403595FAA5F5B5FA85F5EC40641C54
:1016E0006300B2FBF3F001E0024800BF00BF70BD31
:1016F000083802400024F40000127A0038B504468D
:101700000025207800F00100002866D0F748006826
:1017100000F00C0004280DD0F448006800F00C0024
:10172000082813D1F148001F006800F48000B0F5CC
:10173000800F0BD1ED4808380068C0F34040002806
:101740004BD06068002848D1012038BD0020E7490F
:10175000891F0870FFF76EFD054608E0FFF76AFD78
:10176000401B41F28831884201D90320EDE7DF4870
:1017700008380068C0F340400028EFD12079DB49E9
:10178000891F08706068A0B1FFF754FD054608E0A6
:10179000FFF750FD401B41F28831884201D90320F8
:1017A000D3E7D24808380068C0F340400028EFD0A3
:1017B00013E0FFF73FFD054608E0FFF73BFD401B48
:1017C00041F28831884201D90320BEE7C748083872
:1017D0000068C0F340400028EFD1207800F00200FC
:1017E000022869D1C148006800F00C0058B1BF4818
:1017F000006800F00C00082821D1BC48001F0068D8
:1018000000F48000D8B9B94808380068C0F3400037
:1018100020B1E068012801D0012096E7B3480838DC
:10182000006820F0F800F82292FAA2F2B2FA82F2EE
:10183000216991400843AD49083908603CE0E068FF
:1018400028B30120AA490860FFF7F4FC054606E02A
:10185000FFF7F0FC401B642801D9032075E7A3487B
:1018600008380068C0F340000028F1D09F480838CD
:10187000006820F0F800F82292FAA2F2B2FA82F29E
:1018800021699140084399490839086014E0002013
:1018900097490860FFF7CEFC054606E0FFF7CAFC53
:1018A000401B642801D903204FE79048083800689E
:1018B000C0F340000028F1D1207800F0080008288B
:1018C0002CD16069A8B101208A490860FFF7B2FCF9
:1018D000054606E0FFF7AEFC401B642801D9032053
:1018E00033E782486C300068C0F340000028F1D034
:1018F00014E000207F490860FFF79CFC054606E0E5
:10190000FFF798FC401B642801D903201DE77748A6
:101910006C300068C0F340000028F1D1207800F05E
:10192000040004286FD100BF002000906F483830B9
:10193000006840F080506D49383108600846006802
:1019400000F08050009000BF00BF6B48006840F47A
:10195000807069490860FFF76DFC054606E0FFF7F7
:1019600069FC401B642801D90320EEE66248006848
:1019700000F480700028F2D000205C4968310870C3
:10198000FFF758FC054608E0FFF754FC401B41F206
:101990008831884201D90320D7E65448683000686E
:1019A000C0F340000028EFD1207A50496831087018
:1019B000A068A0B1FFF73EFC054608E0FFF73AFC3F
:1019C000401B41F28831884201D90320BDE64748D7
:1019D00068300068C0F340000028EFD013E0FFF744
:1019E00029FC054608E0FFF725FC401B41F2883141
:1019F000884201D90320A8E63C4868300068C0F35B
:101A000040000028EFD1A069F0B33848006800F02A
:101A10000C00082872D0A069022850D10020344957
:101A20000866FFF707FC054606E0FFF703FC401BCE
:101A3000642801D9032088E62C4808380068C0F3E0
:101A400040600028F1D1D4E90701084347F6C0728D
:101A500092FAA2F2B2FA82F2616A9140084301223C
:101A6000A16AC2EB51014FF4403292FAA2F2B2FAEB
:101A700082F2914008434FF0706292FAA2F2B2FAF9
:101A800082F2E16A914000E03AE008431749091FF9
:101A90000860012016490866FFF7CCFB054606E002
:101AA000FFF7C8FB401B642801D903204DE60F480F
:101AB00008380068C0F340600028F1D020E0002022
:101AC0000B490866FFF7B6FB054606E0FFF7B2FBD9
:101AD000401B642801D9032037E604480838006811
:101AE000C0F340600028F1D10AE007E00838024066
:101AF00000004742800E474200700040012024E66B
:101B0000002022E6042808D14FF0E021096941F0C5
:101B100004014FF0E022116107E04FF0E021096974
:101B200021F004014FF0E0221161704770B50446C6
:101B30002546681EB0F1807F01D301200FE0681EAA
:101B40004FF0E02148610F214FF0FF3000F06AF8BC
:101B500000204FF0E021886107200861002070BD5F
:101B600000BFFEE7D0ED030A90ED001A70EE810A87
:101B7000C0ED030AD0ED030A90ED011A70EE810A60
:101B800090ED031AC1EE201AC0ED041AD0ED020A3E
:101B900090ED041AD0ED021A70EE611A41EE210A9E
:101BA000C0ED020AD0ED030A90ED031AD0ED041A3D
:101BB00041EE610AC0ED030A7047000010B5012232
:101BC000D1030248FFF730FB10BD0000000C0240BB
:101BD00010B5012211030248FFF726FB10BD0000DB
:101BE000000C024010B5012251030248FFF71CFB14
:101BF00010BD0000000C024010B501229103024804
:101C0000FFF712FB10BD0000000C024000BFFEE712
:101C10007047000002480068C0F3022070470000CF
:101C20000CED00E010B5002807DA0A07140E054A8B
:101C300000F00F031B1FD45403E00A07130E024ADF
:101C4000135410BD18ED00E000E400E07047000000
:101C500010B500224FF400510A48FFF7E5FA0022C0
:101C60004FF480510748FFF7DFFA00224FF400419C
:101C70000448FFF7D9FA00224FF480410148FFF7EA
:101C8000D3FA10BD000C024010B5044624B9FFF78A
:101C9000DFFFFFF7A7FF1CE00E480068844204D175
:101CA000FFF7D6FFFFF794FF13E00A480068B4EB94
:101CB000400F04D1FFF7CCFFFFF780FF09E0054894
:101CC000006800EB4000A04203D1FFF7C1FFFFF71F
:101CD00093FF10BD0800002010B500224FF4804192
:101CE0002248FFF7A1FA002280212048FFF79CFA42
:101CF00000224FF480711D48FFF796FA00224FF43E
:101D000000711A48FFF790FA00224FF480611748DB
:101D1000FFF78AFA00224FF400611448FFF784FAB3
:101D200000224FF480511148FFF77EFA00224FF451
:101D300000510E48FFF778FA00224FF480710C48EA
:101D4000FFF772FA00224FF400710948FFF76CFAAE
:101D500000224FF480610648FFF766FA00224FF434
:101D600000610348FFF760FA10BD00000010024058
:101D7000000C02407047000010B5FFF761FA0348FD
:101D80000068401C0149086010BD000004000020EC
:101D900010B592B000BF002000902D48006840F0C0
:101DA00080502B4908600846006800F08050009081
:101DB00000BF00BF00BF002000902648006840F42C
:101DC0008040244908600846006800F48040009084
:101DD00000BF00BF01200690079002200C90410533
:101DE0000D9108210E914FF4A8710F9102211091CD
:101DF0000721119106A8FFF781FC10B10020FEF722
:101E000099FE0D20019002200290002003904FF4D3
:101E1000A05004904FF480500590052101A8FFF7D1
:101E20009FFA10B10020FEF785FEFFF7F1FB4FF49B
:101E30007A71B0FBF1F42046FFF778FE0420FFF73B
:101E400061FE00221146501EFFF737FA12B010BD96
:101E500040380240007000401448006840F47000B0
:101E6000124908601248006840F0010010490860FB
:101E700000200F49083108600D4800680D490840EE
:101E80000B4908600C48091D0860081F006820F411
:101E90008020091F0860002005490C3108604FF0C0
:101EA00000600249803908607047000088ED00E05A
:101EB00000380240FFFFF6FE1030002400BFFEE7AE
:101EC000014A024900F013B8111F00081400002055
:101ED00002E008C8121F08C1002AFAD170477047F3
:101EE000002001E001C1121F002AFBD170472DE93B
:101EF000F04116460F460446002503E03946B04738
:101F0000641C6D1C20780028F8D12846BDE8F081BB
:101F100010B5024610460B4B1B6803F001037BB162
:101F2000084B803B1B6803F001034BB100E000BF8E
:101F30004FF060431B68002BF9D04FF060442070D5
:101F400000BF10BD800E00E02DED028B86B0002496
:101F500000BF9FED4C0A8DED010A9FED4A0A8DED01
:101F6000020A9FED490A8DED030A9FED460A8DEDA9
:101F7000040A9FED450A8DED050AFFF769F9FFF7A1
:101F800007FFFEF7F5FBFEF795FE00203F490860CE
:101F900002203F49086000BF73E03E48FEF7ACFFF7
:101FA00006463046FEF730FCB0EE408A01A8B0EE9F
:101FB000480AFFF7D7FD0120B0EE480AFEF7C0FE41
:101FC00080460A20B0EE480AFEF7BAFE07466420B3
:101FD000B0EE480AFEF7B4FE0546B3EE0F0AB4EEC3
:101FE000C08AF1EE10FA03DD02202949086002E000
:101FF00000202749086000202449086000243AE0B6
:1020000022480068032190FBF1F201FB120030B975
:10201000FFF762FE29460120FEF756FC23E01B482D
:102020000068032190FBF1F201FB120001280BD1A3
:10203000FFF752FE39460220FEF746FC4FF0FF3113
:102040000220FEF741FC0EE010480068032190FBDF
:10205000F1F201FB1200022805D1FFF73DFE4146D7
:102060000320FEF731FC0A48006818B107480068F1
:10207000FFF70AFE641C054800680A28C0DBFFF76A
:10208000E7FD8AE7CDCCCC3D000000000400002035
:1020900008000020180000200000000001020304D6
:1020A0000102030406070809C820000800000020F8
:1020B00018000000D01E0008E020000818000020D2
:1020C00070040000E01E0008000000000000000096
:1020D00000000000000000000024F40000000000E8
:040000050800018965
:00000001FF
