:020000040800F2
:10000000900400209D010008451400083D140008DC
:1000100041140008F1030008B915000800000000B1
:100020000000000000000000000000008314000831
:10003000F503000800000000811400088514000882
:10004000B7010008B7010008B7010008B7010008B0
:10005000B7010008B7010008B7010008B7010008A0
:10006000B7010008B7010008B7010008B701000890
:10007000B7010008B7010008B7010008B701000880
:10008000B7010008B7010008B7010008B701000870
:10009000B7010008B7010008B7010008B701000860
:1000A000B7010008B7010008B7010008B701000850
:1000B000B7010008B7010008B7010008B701000840
:1000C000B7010008B7010008B7010008B701000830
:1000D000B7010008B7010008B7010008B701000820
:1000E000B7010008B7010008B7010008B701000810
:1000F000B7010008B7010008B7010008B701000800
:10010000B7010008B7010008B7010008B7010008EF
:10011000B7010008B7010008B7010008B7010008DF
:10012000B7010008B7010008B7010008B7010008CF
:10013000B7010008B7010008B7010008B7010008BF
:10014000B7010008B7010008B7010008B7010008AF
:10015000B7010008B7010008B7010008B70100089F
:10016000B7010008B7010008B7010008B70100088F
:10017000B7010008B7010008B7010008000000003F
:10018000B7010008B7010008DFF80CD000F018F83C
:1001900000480047451600089004002006488047A4
:1001A00006480047FEE7FEE7FEE7FEE7FEE7FEE75C
:1001B000FEE7FEE7FEE7FEE75515000889010008A7
:1001C000064C074D06E0E06840F0010394E80700A4
:1001D00098471034AC42F6D3FFF7DAFF84160008D4
:1001E000A41600085A49096821F44031594AC2F856
:1001F00004131146D1F8041342681143544A1160A4
:100200000168496821F480710268516001684A6898
:10021000016942EA0121026851600168496821F0E0
:100220004071026851600168496882681143026840
:1002300051600168896821F4006102689160016879
:100240008968C268114302689160434AC16A914259
:1002500018D00168896821F07061026891600168B6
:100260008968C26A1143026891600168896821F057
:1002700040510268916001688968026B114302680D
:1002800091600BE00168896821F0706102689160FB
:100290000168896821F040510268916001688968AD
:1002A00021F002010268916001688A68816942EA6E
:1002B000410102689160416AD1B10168496841F425
:1002C0000061026851600168496821F46041026878
:1002D000516001684A68816A491E4FF4604393FA8D
:1002E000A3F3B3FA83F399400A4301684A6005E037
:1002F0000168496821F40061026851600168C96AB7
:1003000021F470010268D1620168CA6A018C491E39
:1003100042EA01510268D1620168896821F40071E2
:100320000268916001688A68C16942EA41210268F5
:1003300091600168896821F48061026891600168B8
:100340008A68416942EA8121026891607047000031
:1003500004230140002001400100000F00B585B0DA
:100360002048214908600120486381F83D000020B1
:10037000486000211C488160C16001614161012128
:1003800081610021C161012101620021416281621C
:10039000C1620163102001900120029007200390A8
:1003A0000020049000BF00901048006840F4807066
:1003B0000E4908600846006800F48070009000BF95
:1003C00000BF094800F00AFA10B1022000F014F84A
:1003D00001A9054800F038F9034800F029FA05B0F2
:1003E00000BD0000002001400C0000204438024005
:1003F00000BFFEE77047000010B50446062C1CD273
:10040000DFE804F003070B0F13170FA001F0D6F875
:1004100017E019A001F0D2F813E022A001F0CEF805
:100420000FE029A001F0CAF80BE036A001F0C6F8F1
:1004300007E041A001F0C2F803E048A001F0BEF8D7
:1004400000BF00BF10BD00004552524F523A204538
:1004500072726F7220696E20696E697469616C696D
:1004600073696E672053797374656D20436C6F6395
:100470006B73200A000000004552524F523A20454B
:1004800072726F7220696E20696E697469616C693D
:1004900073696E672054696D6572206261736520AF
:1004A0000A0000004552524F523A204572726F7254
:1004B00020696E20696E697469616C6973696E6721
:1004C00020414443200A00004552524F523A2045F1
:1004D00072726F7220696E20696E697469616C69ED
:1004E00073696E6720414443204368616E6E656C9A
:1004F00020436F6E66696775726174696F6E200A5A
:10050000000000004552524F523A204572726F72FD
:1005100020696E20696E697469616C6973696E67C0
:1005200020414443204D756C74696D6F64655C4473
:100530004D41200A000000004552524F523A2045DA
:1005400072726F7220696E20696E697469616C697C
:1005500073696E672053504931200A004552524F4B
:10056000523A20414E204552524F52204F4343555C
:10057000524544200A00000008B500BF002000904A
:100580002A48006840F001002849086008460068D1
:1005900000F00100009000BF00BF00BF00200090ED
:1005A0000846006840F0100008600846006800F047
:1005B0001000009000BF00BF00BF00200090084660
:1005C000006840F0020008600846006800F0020081
:1005D000009000BF00BF8E201549086001204860D0
:1005E000022088600320C8604AF680201149086014
:1005F00001204860022088600320C8604FF4284032
:100600000D49086001204860022088600320C8600E
:1006100007490A4800F070F90649094800F06CF9EA
:100620000549084800F068F908BD0000303802406C
:1006300050000020640000207800002000000240EC
:10064000001002400004024018B50246002000904D
:1006500000BF92F83C00012801D1022018BD012002
:1006600082F83C0000BF0868092816D91068C068E5
:100670000B780A3B03EB43040723A340984313681A
:10068000D8600B780A3B03EB4303886898401368F3
:10069000DB6818431368D86013E0106800690B78B2
:1006A00003EB43040723A3409843136818610B78B6
:1006B00003EB43038868984013681B691843136869
:1006C00018614868072817D21068406B0B795B1EC9
:1006D00003EB83041F23A3409843136858630888DF
:1006E00080B20B795B1E03EB8303984013685B6B4E
:1006F00018431368586331E048680D2817D2106812
:10070000006B0B79DB1F03EB83041F23A34098438B
:1007100013681863088880B20B79DB1F03EB83032F
:10072000984013681B6B18431368186316E0106831
:10073000C06A0B790D3B03EB83041F23A34098434E
:100740001368D862088880B20B790D3B03EB8303F2
:1007500098401368DB6A18431368D8621B4B106813
:10076000984208D10868122805D11948006840F459
:100770008000C3F80403154B106898421ED1086826
:10078000102802D00868112818D11148006840F4D8
:1007900000000F4B1860086810280FD10D48006842
:1007A0000D4BB0FBF3F000EB80004000009002E046
:1007B0000098401E009000980028F9D100BF00204A
:1007C00082F83C0000BF00BF48E700000020014065
:1007D000042301400400002040420F0010B50446ED
:1007E0000CB9012010BD1049E06A884200D000BF5A
:1007F00094F83D0028B9002084F83C00204600F021
:1008000015F8022084F83D002046FFF7EBFC00209D
:100810002064012084F83D0000BF002084F83C00E3
:1008200000BF00BFDEE700000100000F70470000BE
:1008300008B501460020009000BF91F83C00012857
:1008400001D1022008BD012081F83C0000BF91F8D1
:100850003D00222803D1322081F83D0002E0122021
:1008600081F83D000868806800F00100A0B90868C0
:10087000806840F001000A6890601B4800681B4ACD
:10088000B0FBF2F000EB4000009002E00098401E48
:10089000009000980028F9D100BF002081F83C00AA
:1008A00000BF1348006800F01F0058B9086880684E
:1008B00000F04050A8B90868806840F080400A689D
:1008C00090600EE00B4A086890420AD10868806880
:1008D00000F0405028B90868806840F080400A68FD
:1008E00090600020AEE700000400002040420F00AE
:1008F0000423014000200140F8B502460B460025C4
:10090000002400200021E1E0012606FA01F51E681E
:1009100006EA0504AC4273D15E68022E02D05E681E
:10092000122E13D1CF0802F1200656F827004E07E9
:10093000F70E0F26BE40B0434F07FF0E1E69BE40A4
:100940003043CF0802F1200646F8270010684F0018
:100950000326BE40B0431E7906F003064F00BE409A
:10096000304310605E68012E08D05E68022E05D00C
:100970005E68112E02D05E68122E13D190684F006F
:100980000326BE40B0434F00DE68BE403043906057
:10099000506801268E40B0431E79C6F300168E4083
:1009A00030435060D0684F000326BE40B0434F0034
:1009B0009E68BE403043D0605E6806F08056B6F157
:1009C000805FA8D100BF00260096424E366846F4EC
:1009D0008046404F3E603E46366806F480460096AC
:1009E00000BF00BF3C4E8F0856F827008E07370F18
:1009F0000F26BE40B043394EB24202D1002629E054
:100A000063E0374EB24201D1012623E0354EB242B7
:100A100001D102261EE0344EB24201D1032619E074
:100A2000324EB24201D1042614E0314EB24201D11D
:100A300005260FE02F4EB24201D106260AE02E4EC7
:100A4000B24201D1072605E02C4EB24201D1082660
:100A500000E009268F073F0FBE4030431E4E8F082F
:100A600046F82700264E3068A0435E6806F48036BC
:100A7000B6F5803F00D12043214E3060361D3068EE
:100A8000A0435E6806F40036B6F5003F00D120436F
:100A90001B4E361D3060361D3068A0435E6806F47C
:100AA0008016B6F5801F00D12043154E0836306001
:100AB000361D3068A0435E6806F40016B6F5001FC8
:100AC00000D120430E4E0C363060491C1029FFF433
:100AD0001BAFF8BD44380240083801400000024016
:100AE0000004024000080240000C024000100240D6
:100AF0000014024000180240001C02400020024086
:100B0000003C01400AB1816101E00B048361704740
:100B1000014800687047000000000020024800689B
:100B2000401C0149086070470000002010B50D48C6
:100B3000006840F400700B4908600846006840F403
:100B4000806008600846006840F4807008600320F8
:100B500000F060F80F2000F007F800F017F8002010
:100B600010BD0000003C024070B5044600F0BEF924
:100B70004FF47A71B0FBF1F5284600F045FC0022F5
:100B80002146501E00F007F8002070BD08B5002077
:100B9000009000BF08BD2DE9F05F80460D46164667
:100BA000002700F051FC074639462A46334601F03B
:100BB0000700C0F1070ABAF1040F02D94FF0040A86
:100BC00001E0C0F1070AD14600F1040ABAF1070FAB
:100BD00002D24FF0000A01E0A0F1030AD4464FF020
:100BE000010A0AFA09FAAAF1010A0AEA020A0AFA49
:100BF0000CFA4FF0010B0BFA0CFBABF1010B0BEAFB
:100C0000030B4AEA0B042146404600F025FCBDE8F0
:100C1000F09F000000BF00F00702064B19684FF676
:100C2000FF031940044B0B4343EA0221014B1960B7
:100C300000BF70470CED00E00000FA0570B50446F7
:100C40000E460025A748006800F00F00B0426FD2A2
:100C5000A4490E700846006800F00F00B04201D0B1
:100C6000012070BD207800F00200022807D19E48C4
:100C7000006820F0F000A16808439B4908602078D4
:100C800000F0010000283ED06068012807D1964896
:100C900008380068C0F34040B8B90120E1E7606857
:100CA000022802D06068032807D18F4808380068FE
:100CB000C0F3406048B90120D3E78B48083800688A
:100CC000C0F3400008B90120CBE78748006820F056
:100CD00003006168084384490860FFF719FF05466F
:100CE0006068012810D108E0FFF712FF401B41F2B5
:100CF0008831884201D90320B3E77B48006800F0BF
:100D00000C000428F0D1CDE06068022811D108E081
:100D1000FFF7FEFE401B41F28831884201D90320D3
:100D20009FE77148006800F00C000828F0D1B9E096
:100D300024E06068032810D108E0FFF7E9FE401BBB
:100D400041F28831884201D903208AE76648006869
:100D500000F00C000328F0D1A4E008E0FFF7D8FE73
:100D6000401B41F28831884201D9032079E75E486F
:100D7000006800F00C000028F0D193E0207800F02B
:100D80000200022807D15848006820F0F000A1684E
:100D9000084355490860207800F00100002877D00A
:100DA0006068012807D1504808380068C0F3404007
:100DB000B8B9012055E76068022802D060680328AE
:100DC00007D1494808380068C0F3406048B901209D
:100DD00047E7454808380068C0F3400008B90120DB
:100DE0003FE74148006820F00300616808433E493E
:100DF0000860FFF78DFE05466068012810D108E005
:100E0000FFF786FE401B41F28831884201D903205A
:100E100027E73548006800F00C000428F0D137E0DF
:100E20006068022810D108E0FFF772FE401B41F213
:100E30008831884201D9032013E72B48006800F06D
:100E40000C000828F0D123E06068032810D108E0E6
:100E5000FFF75EFE401B41F28831884201D9032032
:100E6000FFE62148006800F00C000328F0D10FE0F5
:100E700008E0FFF74DFE401B41F28831884201D95E
:100E80000320EEE61848006800F00C000028F0D1BE
:100E900014490E700846006800F00F00B04201D0FF
:100EA0000120DEE6207800F00400042807D10E4877
:100EB000006820F4E050E16808430B49086020789E
:100EC00000F00800082808D10748006820F46040B6
:100ED000216940EAC100044908600F20FFF744FE81
:100EE0000020BEE6003C02400838024010B500F089
:100EF00019F80949096801F0F001F02292FAA2F20A
:100F0000B2FA82F2D140054A515CC84004490860F7
:100F10000846006810BD000008380240741600083A
:100F20000400002070B50021002200230020274C7F
:100F3000246804F00C0424B1042C04D0082C41D102
:100F400003E0234840E023483EE0204C241F24686F
:100F500004F03F011D4C241F246804F4800484B174
:100F60001C4CB4FBF1F5194C241F246847F6C076DD
:100F7000344096FAA6F6B6FA86F6F44005FB04F27B
:100F80000FE0134CB4FBF1F5104C241F246847F616
:100F9000C076344096FAA6F6B6FA86F6F44005FB1B
:100FA00004F20A4C241F246804F440344FF4403502
:100FB00095FAA5F5B5FA85F5EC40641C6300B2FB23
:100FC000F3F001E0024800BF00BF70BD08380240E6
:100FD0000024F40000127A0038B504460025207879
:100FE00000F00100002866D0F748006800F00C000F
:100FF00004280DD0F448006800F00C00082813D134
:10100000F148001F006800F48000B0F5800F0BD19C
:10101000ED4808380068C0F3404000284BD06068B5
:10102000002848D1012038BD0020E749891F0870F9
:10103000FFF76EFD054608E0FFF76AFD401B41F231
:101040008831884201D90320EDE7DF48083800687D
:10105000C0F340400028EFD12079DB49891F087098
:101060006068A0B1FFF754FD054608E0FFF750FDAA
:10107000401B41F28831884201D90320D3E7D2488E
:1010800008380068C0F340400028EFD013E0FFF7B5
:101090003FFD054608E0FFF73BFD401B41F288316C
:1010A000884201D90320BEE7C74808380068C0F36A
:1010B00040400028EFD1207800F00200022869D1DA
:1010C000C148006800F00C0058B1BF48006800F04B
:1010D0000C00082821D1BC48001F006800F48000E3
:1010E000D8B9B94808380068C0F3400020B1E068BA
:1010F000012801D0012096E7B3480838006820F0A5
:10110000F800F82292FAA2F2B2FA82F22169914032
:101110000843AD49083908603CE0E06828B3012085
:10112000AA490860FFF7F4FC054606E0FFF7F0FC6B
:10113000401B642801D9032075E7A34808380068DC
:10114000C0F340000028F1D09F480838006820F024
:10115000F800F82292FAA2F2B2FA82F221699140E2
:10116000084399490839086014E00020974908604D
:10117000FFF7CEFC054606E0FFF7CAFC401B6428DB
:1011800001D903204FE7904808380068C0F34000B9
:101190000028F1D1207800F0080008282CD16069DF
:1011A000A8B101208A490860FFF7B2FC054606E0B5
:1011B000FFF7AEFC401B642801D9032033E78248C7
:1011C0006C300068C0F340000028F1D014E000202B
:1011D0007F490860FFF79CFC054606E0FFF798FC96
:1011E000401B642801D903201DE777486C30006854
:1011F000C0F340000028F1D1207800F0040004285A
:101200006FD100BF002000906F483830006840F078
:1012100080506D49383108600846006800F0805001
:10122000009000BF00BF6B48006840F480706949BF
:101230000860FFF76DFC054606E0FFF769FC401B00
:10124000642801D90320EEE66248006800F480704B
:101250000028F2D000205C4968310870FFF758FC84
:10126000054608E0FFF754FC401B41F288318842F4
:1012700001D90320D7E6544868300068C0F3400025
:101280000028EFD1207A504968310870A068A0B1D9
:10129000FFF73EFC054608E0FFF73AFC401B41F231
:1012A0008831884201D90320BDE64748683000688C
:1012B000C0F340000028EFD013E0FFF729FC0546FB
:1012C00008E0FFF725FC401B41F28831884201D934
:1012D0000320A8E63C4868300068C0F340000028BE
:1012E000EFD1A069F0B33848006800F00C0008287E
:1012F00072D0A069022850D1002034490866FFF757
:1013000007FC054606E0FFF703FC401B642801D9F3
:10131000032088E62C4808380068C0F340600028A5
:10132000F1D1D4E90701084347F6C07292FAA2F25C
:10133000B2FA82F2616A914008430122A16AC2EBCB
:1013400051014FF4403292FAA2F2B2FA82F2914085
:1013500008434FF0706292FAA2F2B2FA82F2E16AA6
:10136000914000E03AE008431749091F0860012056
:1013700016490866FFF7CCFB054606E0FFF7C8FBF9
:10138000401B642801D903204DE60F480838006847
:10139000C0F340600028F1D020E000200B4908662F
:1013A000FFF7B6FB054606E0FFF7B2FB401B6428DB
:1013B00001D9032037E6044808380068C0F34060CC
:1013C0000028F1D10AE007E0083802400000474257
:1013D000800E474200700040012024E6002022E6F3
:1013E000042808D14FF0E021096941F004014FF0D1
:1013F000E022116107E04FF0E021096921F00401CA
:101400004FF0E0221161704770B504462546681E12
:10141000B0F1807F01D301200FE0681E4FF0E02182
:1014200048610F214FF0FF3000F016F800204FF018
:10143000E021886107200861002070BD00BFFEE741
:1014400000BFFEE77047000002480068C0F30220BA
:10145000704700000CED00E010B5002807DA0A071D
:10146000140E054A00F00F031B1FD45403E00A07B3
:10147000130E024A135410BD18ED00E000E400E022
:101480007047704710B5FFF749FB10BD10B592B01B
:1014900000BF002000902D48006840F080502B498C
:1014A00008600846006800F08050009000BF00BF50
:1014B00000BF002000902648006840F48040244986
:1014C00008600846006800F48040009000BF00BF3C
:1014D00001200690079002200C9041050D910821F3
:1014E0000E914FF4A8710F910221109107211191D3
:1014F00006A8FFF771FD10B10020FEF77DFF0D205B
:10150000019002200290002003904FF4A05004901C
:101510004FF480500590052101A8FFF78FFB10B113
:101520000020FEF769FFFFF7E1FC4FF47A71B0FB92
:10153000F1F42046FFF768FF0420FFF751FF002277
:101540001146501EFFF727FB12B010BD4038024075
:10155000007000401448006840F4700012490860B0
:101560001248006840F001001049086000200F494F
:10157000083108600D4800680D4908400B490860B3
:101580000C48091D0860081F006820F48020091F0E
:101590000860002005490C3108604FF000600249E6
:1015A000803908607047000088ED00E00038024094
:1015B000FFFFF6FE1030002400BFFEE7014A02499B
:1015C00000F013B80D1600080800002002E008C85B
:1015D000121F08C1002AFAD170477047002001E0AD
:1015E00001C1121F002AFBD170472DE9F0411646B8
:1015F0000F460446002503E03946B047641C6D1CC5
:1016000020780028F8D12846BDE8F08110B50246C0
:1016100010460B4B1B6803F001037BB1084B803B6A
:101620001B6803F001034BB100E000BF4FF06043C3
:101630001B68002BF9D04FF06044207000BF10BD34
:10164000800E00E0FFF772FAFFF720FFFEF786FE3C
:10165000FEF792FF09E00122D1030448FFF752FA96
:10166000012202210248FFF74DFAF4E70010024080
:101670000000024000000000010203040102030414
:1016800006070809A4160008000000200C0000004E
:10169000CC150008B01600080C00002084040000DF
:1016A000DC150008000000000024F4000000000029
:040000050800018965
:00000001FF
